{
  "_format": "hh-sol-artifact-1",
  "contractName": "SwordsTest",
  "sourceName": "contracts/SwordsTest.sol",
  "abi": [
    {
      "inputs": [],
      "stateMutability": "nonpayable",
      "type": "constructor"
    },
    {
      "inputs": [],
      "name": "ApprovalCallerNotOwnerNorApproved",
      "type": "error"
    },
    {
      "inputs": [],
      "name": "ApprovalQueryForNonexistentToken",
      "type": "error"
    },
    {
      "inputs": [],
      "name": "BalanceQueryForZeroAddress",
      "type": "error"
    },
    {
      "inputs": [],
      "name": "MintERC2309QuantityExceedsLimit",
      "type": "error"
    },
    {
      "inputs": [],
      "name": "MintToZeroAddress",
      "type": "error"
    },
    {
      "inputs": [],
      "name": "MintZeroQuantity",
      "type": "error"
    },
    {
      "inputs": [],
      "name": "OwnerQueryForNonexistentToken",
      "type": "error"
    },
    {
      "inputs": [],
      "name": "OwnershipNotInitializedForExtraData",
      "type": "error"
    },
    {
      "inputs": [],
      "name": "TransferCallerNotOwnerNorApproved",
      "type": "error"
    },
    {
      "inputs": [],
      "name": "TransferFromIncorrectOwner",
      "type": "error"
    },
    {
      "inputs": [],
      "name": "TransferToNonERC721ReceiverImplementer",
      "type": "error"
    },
    {
      "inputs": [],
      "name": "TransferToZeroAddress",
      "type": "error"
    },
    {
      "inputs": [],
      "name": "URIQueryForNonexistentToken",
      "type": "error"
    },
    {
      "anonymous": false,
      "inputs": [
        {
          "indexed": true,
          "internalType": "address",
          "name": "owner",
          "type": "address"
        },
        {
          "indexed": true,
          "internalType": "address",
          "name": "approved",
          "type": "address"
        },
        {
          "indexed": true,
          "internalType": "uint256",
          "name": "tokenId",
          "type": "uint256"
        }
      ],
      "name": "Approval",
      "type": "event"
    },
    {
      "anonymous": false,
      "inputs": [
        {
          "indexed": true,
          "internalType": "address",
          "name": "owner",
          "type": "address"
        },
        {
          "indexed": true,
          "internalType": "address",
          "name": "operator",
          "type": "address"
        },
        {
          "indexed": false,
          "internalType": "bool",
          "name": "approved",
          "type": "bool"
        }
      ],
      "name": "ApprovalForAll",
      "type": "event"
    },
    {
      "anonymous": false,
      "inputs": [
        {
          "indexed": true,
          "internalType": "uint256",
          "name": "fromTokenId",
          "type": "uint256"
        },
        {
          "indexed": false,
          "internalType": "uint256",
          "name": "toTokenId",
          "type": "uint256"
        },
        {
          "indexed": true,
          "internalType": "address",
          "name": "from",
          "type": "address"
        },
        {
          "indexed": true,
          "internalType": "address",
          "name": "to",
          "type": "address"
        }
      ],
      "name": "ConsecutiveTransfer",
      "type": "event"
    },
    {
      "anonymous": false,
      "inputs": [
        {
          "indexed": true,
          "internalType": "address",
          "name": "previousOwner",
          "type": "address"
        },
        {
          "indexed": true,
          "internalType": "address",
          "name": "newOwner",
          "type": "address"
        }
      ],
      "name": "OwnershipTransferred",
      "type": "event"
    },
    {
      "anonymous": false,
      "inputs": [
        {
          "indexed": true,
          "internalType": "address",
          "name": "from",
          "type": "address"
        },
        {
          "indexed": true,
          "internalType": "address",
          "name": "to",
          "type": "address"
        },
        {
          "indexed": true,
          "internalType": "uint256",
          "name": "tokenId",
          "type": "uint256"
        }
      ],
      "name": "Transfer",
      "type": "event"
    },
    {
      "inputs": [
        {
          "internalType": "address",
          "name": "to",
          "type": "address"
        },
        {
          "internalType": "uint256",
          "name": "tokenId",
          "type": "uint256"
        }
      ],
      "name": "approve",
      "outputs": [],
      "stateMutability": "payable",
      "type": "function"
    },
    {
      "inputs": [
        {
          "internalType": "address",
          "name": "owner",
          "type": "address"
        }
      ],
      "name": "balanceOf",
      "outputs": [
        {
          "internalType": "uint256",
          "name": "",
          "type": "uint256"
        }
      ],
      "stateMutability": "view",
      "type": "function"
    },
    {
      "inputs": [],
      "name": "baseExtension",
      "outputs": [
        {
          "internalType": "string",
          "name": "",
          "type": "string"
        }
      ],
      "stateMutability": "view",
      "type": "function"
    },
    {
      "inputs": [],
      "name": "cost",
      "outputs": [
        {
          "internalType": "uint256",
          "name": "",
          "type": "uint256"
        }
      ],
      "stateMutability": "view",
      "type": "function"
    },
    {
      "inputs": [
        {
          "internalType": "uint256",
          "name": "tokenId",
          "type": "uint256"
        }
      ],
      "name": "getApproved",
      "outputs": [
        {
          "internalType": "address",
          "name": "",
          "type": "address"
        }
      ],
      "stateMutability": "view",
      "type": "function"
    },
    {
      "inputs": [
        {
          "internalType": "address",
          "name": "owner",
          "type": "address"
        },
        {
          "internalType": "address",
          "name": "operator",
          "type": "address"
        }
      ],
      "name": "isApprovedForAll",
      "outputs": [
        {
          "internalType": "bool",
          "name": "",
          "type": "bool"
        }
      ],
      "stateMutability": "view",
      "type": "function"
    },
    {
      "inputs": [
        {
          "internalType": "uint256",
          "name": "_count",
          "type": "uint256"
        }
      ],
      "name": "mint",
      "outputs": [],
      "stateMutability": "payable",
      "type": "function"
    },
    {
      "inputs": [],
      "name": "mintActive",
      "outputs": [
        {
          "internalType": "bool",
          "name": "",
          "type": "bool"
        }
      ],
      "stateMutability": "view",
      "type": "function"
    },
    {
      "inputs": [
        {
          "internalType": "uint256",
          "name": "_count",
          "type": "uint256"
        }
      ],
      "name": "mintFree",
      "outputs": [],
      "stateMutability": "nonpayable",
      "type": "function"
    },
    {
      "inputs": [],
      "name": "mintLimit",
      "outputs": [
        {
          "internalType": "uint256",
          "name": "",
          "type": "uint256"
        }
      ],
      "stateMutability": "view",
      "type": "function"
    },
    {
      "inputs": [],
      "name": "name",
      "outputs": [
        {
          "internalType": "string",
          "name": "",
          "type": "string"
        }
      ],
      "stateMutability": "view",
      "type": "function"
    },
    {
      "inputs": [],
      "name": "owner",
      "outputs": [
        {
          "internalType": "address",
          "name": "",
          "type": "address"
        }
      ],
      "stateMutability": "view",
      "type": "function"
    },
    {
      "inputs": [
        {
          "internalType": "uint256",
          "name": "tokenId",
          "type": "uint256"
        }
      ],
      "name": "ownerOf",
      "outputs": [
        {
          "internalType": "address",
          "name": "",
          "type": "address"
        }
      ],
      "stateMutability": "view",
      "type": "function"
    },
    {
      "inputs": [],
      "name": "releaseReserve",
      "outputs": [],
      "stateMutability": "nonpayable",
      "type": "function"
    },
    {
      "inputs": [],
      "name": "renounceOwnership",
      "outputs": [],
      "stateMutability": "nonpayable",
      "type": "function"
    },
    {
      "inputs": [
        {
          "internalType": "address",
          "name": "owner",
          "type": "address"
        },
        {
          "internalType": "uint256",
          "name": "_count",
          "type": "uint256"
        }
      ],
      "name": "reserveTokens",
      "outputs": [],
      "stateMutability": "nonpayable",
      "type": "function"
    },
    {
      "inputs": [
        {
          "internalType": "address",
          "name": "from",
          "type": "address"
        },
        {
          "internalType": "address",
          "name": "to",
          "type": "address"
        },
        {
          "internalType": "uint256",
          "name": "tokenId",
          "type": "uint256"
        }
      ],
      "name": "safeTransferFrom",
      "outputs": [],
      "stateMutability": "payable",
      "type": "function"
    },
    {
      "inputs": [
        {
          "internalType": "address",
          "name": "from",
          "type": "address"
        },
        {
          "internalType": "address",
          "name": "to",
          "type": "address"
        },
        {
          "internalType": "uint256",
          "name": "tokenId",
          "type": "uint256"
        },
        {
          "internalType": "bytes",
          "name": "_data",
          "type": "bytes"
        }
      ],
      "name": "safeTransferFrom",
      "outputs": [],
      "stateMutability": "payable",
      "type": "function"
    },
    {
      "inputs": [
        {
          "internalType": "address",
          "name": "operator",
          "type": "address"
        },
        {
          "internalType": "bool",
          "name": "approved",
          "type": "bool"
        }
      ],
      "name": "setApprovalForAll",
      "outputs": [],
      "stateMutability": "nonpayable",
      "type": "function"
    },
    {
      "inputs": [
        {
          "internalType": "string",
          "name": "uri",
          "type": "string"
        }
      ],
      "name": "setBaseURI",
      "outputs": [],
      "stateMutability": "nonpayable",
      "type": "function"
    },
    {
      "inputs": [
        {
          "internalType": "uint256",
          "name": "_cost",
          "type": "uint256"
        }
      ],
      "name": "setCost",
      "outputs": [],
      "stateMutability": "nonpayable",
      "type": "function"
    },
    {
      "inputs": [
        {
          "internalType": "bool",
          "name": "_mintActive",
          "type": "bool"
        }
      ],
      "name": "setMintActive",
      "outputs": [],
      "stateMutability": "nonpayable",
      "type": "function"
    },
    {
      "inputs": [
        {
          "internalType": "uint256",
          "name": "_mintLimit",
          "type": "uint256"
        }
      ],
      "name": "setMintLimit",
      "outputs": [],
      "stateMutability": "nonpayable",
      "type": "function"
    },
    {
      "inputs": [],
      "name": "supply",
      "outputs": [
        {
          "internalType": "uint256",
          "name": "",
          "type": "uint256"
        }
      ],
      "stateMutability": "view",
      "type": "function"
    },
    {
      "inputs": [
        {
          "internalType": "bytes4",
          "name": "interfaceId",
          "type": "bytes4"
        }
      ],
      "name": "supportsInterface",
      "outputs": [
        {
          "internalType": "bool",
          "name": "",
          "type": "bool"
        }
      ],
      "stateMutability": "view",
      "type": "function"
    },
    {
      "inputs": [],
      "name": "symbol",
      "outputs": [
        {
          "internalType": "string",
          "name": "",
          "type": "string"
        }
      ],
      "stateMutability": "view",
      "type": "function"
    },
    {
      "inputs": [
        {
          "internalType": "uint256",
          "name": "_tokenId",
          "type": "uint256"
        }
      ],
      "name": "tokenURI",
      "outputs": [
        {
          "internalType": "string",
          "name": "",
          "type": "string"
        }
      ],
      "stateMutability": "view",
      "type": "function"
    },
    {
      "inputs": [],
      "name": "totalSupply",
      "outputs": [
        {
          "internalType": "uint256",
          "name": "",
          "type": "uint256"
        }
      ],
      "stateMutability": "view",
      "type": "function"
    },
    {
      "inputs": [
        {
          "internalType": "address",
          "name": "from",
          "type": "address"
        },
        {
          "internalType": "address",
          "name": "to",
          "type": "address"
        },
        {
          "internalType": "uint256",
          "name": "tokenId",
          "type": "uint256"
        }
      ],
      "name": "transferFrom",
      "outputs": [],
      "stateMutability": "payable",
      "type": "function"
    },
    {
      "inputs": [
        {
          "internalType": "address",
          "name": "newOwner",
          "type": "address"
        }
      ],
      "name": "transferOwnership",
      "outputs": [],
      "stateMutability": "nonpayable",
      "type": "function"
    },
    {
      "inputs": [],
      "name": "withdraw",
      "outputs": [],
      "stateMutability": "payable",
      "type": "function"
    }
  ],
  "bytecode": "0x60806040526040518060400160405280600581526020017f2e6a736f6e000000000000000000000000000000000000000000000000000000815250600b90816200004a9190620004ba565b506000600c60006101000a81548160ff021916908315150217905550600a600d556002600e556002600f5560026010556611c37937e080006011553480156200009257600080fd5b506040518060400160405280600a81526020017f53776f72647354657374000000000000000000000000000000000000000000008152506040518060400160405280600481526020017f53575454000000000000000000000000000000000000000000000000000000008152508160029081620001109190620004ba565b508060039081620001229190620004ba565b50620001336200016960201b60201c565b60008190555050506200015b6200014f6200017260201b60201c565b6200017a60201b60201c565b6001600981905550620005a1565b60006001905090565b600033905090565b6000600860009054906101000a900473ffffffffffffffffffffffffffffffffffffffff16905081600860006101000a81548173ffffffffffffffffffffffffffffffffffffffff021916908373ffffffffffffffffffffffffffffffffffffffff1602179055508173ffffffffffffffffffffffffffffffffffffffff168173ffffffffffffffffffffffffffffffffffffffff167f8be0079c531659141344cd1fd0a4f28419497f9722a3daafe3b4186f6b6457e060405160405180910390a35050565b600081519050919050565b7f4e487b7100000000000000000000000000000000000000000000000000000000600052604160045260246000fd5b7f4e487b7100000000000000000000000000000000000000000000000000000000600052602260045260246000fd5b60006002820490506001821680620002c257607f821691505b602082108103620002d857620002d76200027a565b5b50919050565b60008190508160005260206000209050919050565b60006020601f8301049050919050565b600082821b905092915050565b600060088302620003427fffffffffffffffffffffffffffffffffffffffffffffffffffffffffffffffff8262000303565b6200034e868362000303565b95508019841693508086168417925050509392505050565b6000819050919050565b6000819050919050565b60006200039b620003956200038f8462000366565b62000370565b62000366565b9050919050565b6000819050919050565b620003b7836200037a565b620003cf620003c682620003a2565b84845462000310565b825550505050565b600090565b620003e6620003d7565b620003f3818484620003ac565b505050565b5b818110156200041b576200040f600082620003dc565b600181019050620003f9565b5050565b601f8211156200046a576200043481620002de565b6200043f84620002f3565b810160208510156200044f578190505b620004676200045e85620002f3565b830182620003f8565b50505b505050565b600082821c905092915050565b60006200048f600019846008026200046f565b1980831691505092915050565b6000620004aa83836200047c565b9150826002028217905092915050565b620004c58262000240565b67ffffffffffffffff811115620004e157620004e06200024b565b5b620004ed8254620002a9565b620004fa8282856200041f565b600060209050601f8311600181146200053257600084156200051d578287015190505b6200052985826200049c565b86555062000599565b601f1984166200054286620002de565b60005b828110156200056c5784890151825560018201915060208501945060208101905062000545565b868310156200058c578489015162000588601f8916826200047c565b8355505b6001600288020188555050505b505050505050565b6134d080620005b16000396000f3fe6080604052600436106101d85760003560e01c8063715018a611610102578063a414673311610095578063d3933ada11610064578063d3933ada14610634578063e985e9c51461064b578063ee1cc94414610688578063f2fde38b146106b1576101d8565b8063a414673314610587578063b88d4fde146105b0578063c6682862146105cc578063c87b56dd146105f7576101d8565b8063996517cf116100d1578063996517cf146104ee5780639e6a1d7d14610519578063a0712d6814610542578063a22cb4651461055e576101d8565b8063715018a61461045857806378cf19e91461046f5780638da5cb5b1461049857806395d89b41146104c3576101d8565b806323b872dd1161017a57806344a0d68a1161014957806344a0d68a1461038c57806355f804b3146103b55780636352211e146103de57806370a082311461041b576101d8565b806323b872dd1461031f57806325fd90f31461033b5780633ccfd60b1461036657806342842e0e14610370576101d8565b8063081812fc116101b6578063081812fc14610270578063095ea7b3146102ad57806313faede6146102c957806318160ddd146102f4576101d8565b806301ffc9a7146101dd578063047fc9aa1461021a57806306fdde0314610245575b600080fd5b3480156101e957600080fd5b5061020460048036038101906101ff91906122ae565b6106da565b60405161021191906122f6565b60405180910390f35b34801561022657600080fd5b5061022f61076c565b60405161023c919061232a565b60405180910390f35b34801561025157600080fd5b5061025a610772565b60405161026791906123d5565b60405180910390f35b34801561027c57600080fd5b5061029760048036038101906102929190612423565b610804565b6040516102a49190612491565b60405180910390f35b6102c760048036038101906102c291906124d8565b610883565b005b3480156102d557600080fd5b506102de6109c7565b6040516102eb919061232a565b60405180910390f35b34801561030057600080fd5b506103096109cd565b604051610316919061232a565b60405180910390f35b61033960048036038101906103349190612518565b6109e4565b005b34801561034757600080fd5b50610350610d06565b60405161035d91906122f6565b60405180910390f35b61036e610d19565b005b61038a60048036038101906103859190612518565b610db1565b005b34801561039857600080fd5b506103b360048036038101906103ae9190612423565b610dd1565b005b3480156103c157600080fd5b506103dc60048036038101906103d791906126a0565b610de3565b005b3480156103ea57600080fd5b5061040560048036038101906104009190612423565b610dfe565b6040516104129190612491565b60405180910390f35b34801561042757600080fd5b50610442600480360381019061043d91906126e9565b610e10565b60405161044f919061232a565b60405180910390f35b34801561046457600080fd5b5061046d610ec8565b005b34801561047b57600080fd5b50610496600480360381019061049191906124d8565b610edc565b005b3480156104a457600080fd5b506104ad610f5b565b6040516104ba9190612491565b60405180910390f35b3480156104cf57600080fd5b506104d8610f85565b6040516104e591906123d5565b60405180910390f35b3480156104fa57600080fd5b50610503611017565b604051610510919061232a565b60405180910390f35b34801561052557600080fd5b50610540600480360381019061053b9190612423565b61101d565b005b61055c60048036038101906105579190612423565b61102f565b005b34801561056a57600080fd5b5061058560048036038101906105809190612742565b61121d565b005b34801561059357600080fd5b506105ae60048036038101906105a99190612423565b611328565b005b6105ca60048036038101906105c59190612823565b6114b5565b005b3480156105d857600080fd5b506105e1611528565b6040516105ee91906123d5565b60405180910390f35b34801561060357600080fd5b5061061e60048036038101906106199190612423565b6115b6565b60405161062b91906123d5565b60405180910390f35b34801561064057600080fd5b50610649611660565b005b34801561065757600080fd5b50610672600480360381019061066d91906128a6565b611672565b60405161067f91906122f6565b60405180910390f35b34801561069457600080fd5b506106af60048036038101906106aa91906128e6565b611706565b005b3480156106bd57600080fd5b506106d860048036038101906106d391906126e9565b61172b565b005b60006301ffc9a760e01b827bffffffffffffffffffffffffffffffffffffffffffffffffffffffff1916148061073557506380ac58cd60e01b827bffffffffffffffffffffffffffffffffffffffffffffffffffffffff1916145b806107655750635b5e139f60e01b827bffffffffffffffffffffffffffffffffffffffffffffffffffffffff1916145b9050919050565b600d5481565b60606002805461078190612942565b80601f01602080910402602001604051908101604052809291908181526020018280546107ad90612942565b80156107fa5780601f106107cf576101008083540402835291602001916107fa565b820191906000526020600020905b8154815290600101906020018083116107dd57829003601f168201915b5050505050905090565b600061080f826117ae565b610845576040517fcf4700e400000000000000000000000000000000000000000000000000000000815260040160405180910390fd5b6006600083815260200190815260200160002060000160009054906101000a900473ffffffffffffffffffffffffffffffffffffffff169050919050565b600061088e82610dfe565b90508073ffffffffffffffffffffffffffffffffffffffff166108af61180d565b73ffffffffffffffffffffffffffffffffffffffff1614610912576108db816108d661180d565b611672565b610911576040517fcfb3b94200000000000000000000000000000000000000000000000000000000815260040160405180910390fd5b5b826006600084815260200190815260200160002060000160006101000a81548173ffffffffffffffffffffffffffffffffffffffff021916908373ffffffffffffffffffffffffffffffffffffffff160217905550818373ffffffffffffffffffffffffffffffffffffffff168273ffffffffffffffffffffffffffffffffffffffff167f8c5be1e5ebec7d5bd14f71427d1e84f3dd0314c0f7b2291e5b200ac8c7c3b92560405160405180910390a4505050565b60115481565b60006109d7611815565b6001546000540303905090565b60006109ef8261181e565b90508373ffffffffffffffffffffffffffffffffffffffff168173ffffffffffffffffffffffffffffffffffffffff1614610a56576040517fa114810000000000000000000000000000000000000000000000000000000000815260040160405180910390fd5b600080610a62846118ea565b91509150610a788187610a7361180d565b611911565b610ac457610a8d86610a8861180d565b611672565b610ac3576040517f59c896be00000000000000000000000000000000000000000000000000000000815260040160405180910390fd5b5b600073ffffffffffffffffffffffffffffffffffffffff168573ffffffffffffffffffffffffffffffffffffffff1603610b2a576040517fea553b3400000000000000000000000000000000000000000000000000000000815260040160405180910390fd5b610b378686866001611955565b8015610b4257600082555b600560008773ffffffffffffffffffffffffffffffffffffffff1673ffffffffffffffffffffffffffffffffffffffff168152602001908152602001600020600081546001900391905081905550600560008673ffffffffffffffffffffffffffffffffffffffff1673ffffffffffffffffffffffffffffffffffffffff1681526020019081526020016000206000815460010191905081905550610c1085610bec88888761195b565b7c020000000000000000000000000000000000000000000000000000000017611983565b600460008681526020019081526020016000208190555060007c0200000000000000000000000000000000000000000000000000000000841603610c965760006001850190506000600460008381526020019081526020016000205403610c94576000548114610c93578360046000838152602001908152602001600020819055505b5b505b838573ffffffffffffffffffffffffffffffffffffffff168773ffffffffffffffffffffffffffffffffffffffff167fddf252ad1be2c89b69c2b068fc378daa952ba7f163c4a11628f55a4df523b3ef60405160405180910390a4610cfe86868660016119ae565b505050505050565b600c60009054906101000a900460ff1681565b610d216119b4565b610d29611a32565b6000610d33610f5b565b73ffffffffffffffffffffffffffffffffffffffff1647604051610d56906129a4565b60006040518083038185875af1925050503d8060008114610d93576040519150601f19603f3d011682016040523d82523d6000602084013e610d98565b606091505b5050905080610da657600080fd5b50610daf611a81565b565b610dcc838383604051806020016040528060008152506114b5565b505050565b610dd96119b4565b8060118190555050565b610deb6119b4565b80600a9081610dfa9190612b65565b5050565b6000610e098261181e565b9050919050565b60008073ffffffffffffffffffffffffffffffffffffffff168273ffffffffffffffffffffffffffffffffffffffff1603610e77576040517f8f4eb60400000000000000000000000000000000000000000000000000000000815260040160405180910390fd5b67ffffffffffffffff600560008473ffffffffffffffffffffffffffffffffffffffff1673ffffffffffffffffffffffffffffffffffffffff16815260200190815260200160002054169050919050565b610ed06119b4565b610eda6000611a8b565b565b610ee4611a32565b610eec6119b4565b600f54811115610f31576040517f08c379a0000000000000000000000000000000000000000000000000000000008152600401610f2890612ca9565b60405180910390fd5b610f3b8282611b51565b80600f54610f499190612cf8565b600f81905550610f57611a81565b5050565b6000600860009054906101000a900473ffffffffffffffffffffffffffffffffffffffff16905090565b606060038054610f9490612942565b80601f0160208091040260200160405190810160405280929190818152602001828054610fc090612942565b801561100d5780601f10610fe25761010080835404028352916020019161100d565b820191906000526020600020905b815481529060010190602001808311610ff057829003601f168201915b5050505050905090565b600e5481565b6110256119b4565b80600e8190555050565b611037611a32565b80600c60009054906101000a900460ff16611087576040517f08c379a000000000000000000000000000000000000000000000000000000000815260040161107e90612d78565b60405180910390fd5b81600f54600d546110989190612cf8565b816110a16109cd565b6110ab9190612d98565b11156110ec576040517f08c379a00000000000000000000000000000000000000000000000000000000081526004016110e390612e3e565b60405180910390fd5b82600e54816110fa33611b6f565b6111049190612d98565b1115611145576040517f08c379a000000000000000000000000000000000000000000000000000000000815260040161113c90612ed0565b60405180910390fd5b83806011546111549190612ef0565b341015611196576040517f08c379a000000000000000000000000000000000000000000000000000000000815260040161118d90612f7e565b60405180910390fd5b3273ffffffffffffffffffffffffffffffffffffffff163373ffffffffffffffffffffffffffffffffffffffff1614611204576040517f08c379a00000000000000000000000000000000000000000000000000000000081526004016111fb90612fea565b60405180910390fd5b61120e3386611b51565b5050505061121a611a81565b50565b806007600061122a61180d565b73ffffffffffffffffffffffffffffffffffffffff1673ffffffffffffffffffffffffffffffffffffffff16815260200190815260200160002060008473ffffffffffffffffffffffffffffffffffffffff1673ffffffffffffffffffffffffffffffffffffffff16815260200190815260200160002060006101000a81548160ff0219169083151502179055508173ffffffffffffffffffffffffffffffffffffffff166112d761180d565b73ffffffffffffffffffffffffffffffffffffffff167f17307eab39ab6107e8899845ad3d59bd9653f200f220920489ca2b5937696c318360405161131c91906122f6565b60405180910390a35050565b611330611a32565b80600c60009054906101000a900460ff16611380576040517f08c379a000000000000000000000000000000000000000000000000000000000815260040161137790612d78565b60405180910390fd5b81600e548161138e33611b6f565b6113989190612d98565b11156113d9576040517f08c379a00000000000000000000000000000000000000000000000000000000081526004016113d090612ed0565b60405180910390fd5b3273ffffffffffffffffffffffffffffffffffffffff163373ffffffffffffffffffffffffffffffffffffffff1614611447576040517f08c379a000000000000000000000000000000000000000000000000000000000815260040161143e90612fea565b60405180910390fd5b601054836114536109cd565b61145d9190612d98565b111561149e576040517f08c379a00000000000000000000000000000000000000000000000000000000081526004016114959061307c565b60405180910390fd5b6114a83384611b51565b50506114b2611a81565b50565b6114c08484846109e4565b60008373ffffffffffffffffffffffffffffffffffffffff163b14611522576114eb84848484611bc6565b611521576040517fd1a57ed600000000000000000000000000000000000000000000000000000000815260040160405180910390fd5b5b50505050565b600b805461153590612942565b80601f016020809104026020016040519081016040528092919081815260200182805461156190612942565b80156115ae5780601f10611583576101008083540402835291602001916115ae565b820191906000526020600020905b81548152906001019060200180831161159157829003601f168201915b505050505081565b60606115c1826117ae565b611600576040517f08c379a00000000000000000000000000000000000000000000000000000000081526004016115f79061310e565b60405180910390fd5b600061160a611d16565b9050600081511161162a5760405180602001604052806000815250611658565b8061163484611da8565b600b604051602001611648939291906131ed565b6040516020818303038152906040525b915050919050565b6116686119b4565b6000600f81905550565b6000600760008473ffffffffffffffffffffffffffffffffffffffff1673ffffffffffffffffffffffffffffffffffffffff16815260200190815260200160002060008373ffffffffffffffffffffffffffffffffffffffff1673ffffffffffffffffffffffffffffffffffffffff16815260200190815260200160002060009054906101000a900460ff16905092915050565b61170e6119b4565b80600c60006101000a81548160ff02191690831515021790555050565b6117336119b4565b600073ffffffffffffffffffffffffffffffffffffffff168173ffffffffffffffffffffffffffffffffffffffff16036117a2576040517f08c379a000000000000000000000000000000000000000000000000000000000815260040161179990613290565b60405180910390fd5b6117ab81611a8b565b50565b6000816117b9611815565b111580156117c8575060005482105b8015611806575060007c0100000000000000000000000000000000000000000000000000000000600460008581526020019081526020016000205416145b9050919050565b600033905090565b60006001905090565b6000808290508061182d611815565b116118b3576000548110156118b25760006004600083815260200190815260200160002054905060007c01000000000000000000000000000000000000000000000000000000008216036118b0575b600081036118a657600460008360019003935083815260200190815260200160002054905061187c565b80925050506118e5565b505b5b6040517fdf2d9b4200000000000000000000000000000000000000000000000000000000815260040160405180910390fd5b919050565b60008060006006600085815260200190815260200160002090508092508254915050915091565b600073ffffffffffffffffffffffffffffffffffffffff8316925073ffffffffffffffffffffffffffffffffffffffff821691508382148383141790509392505050565b50505050565b60008060e883901c905060e8611972868684611e76565b62ffffff16901b9150509392505050565b600073ffffffffffffffffffffffffffffffffffffffff83169250814260a01b178317905092915050565b50505050565b6119bc611e7f565b73ffffffffffffffffffffffffffffffffffffffff166119da610f5b565b73ffffffffffffffffffffffffffffffffffffffff1614611a30576040517f08c379a0000000000000000000000000000000000000000000000000000000008152600401611a27906132fc565b60405180910390fd5b565b600260095403611a77576040517f08c379a0000000000000000000000000000000000000000000000000000000008152600401611a6e90613368565b60405180910390fd5b6002600981905550565b6001600981905550565b6000600860009054906101000a900473ffffffffffffffffffffffffffffffffffffffff16905081600860006101000a81548173ffffffffffffffffffffffffffffffffffffffff021916908373ffffffffffffffffffffffffffffffffffffffff1602179055508173ffffffffffffffffffffffffffffffffffffffff168173ffffffffffffffffffffffffffffffffffffffff167f8be0079c531659141344cd1fd0a4f28419497f9722a3daafe3b4186f6b6457e060405160405180910390a35050565b611b6b828260405180602001604052806000815250611e87565b5050565b600067ffffffffffffffff6040600560008573ffffffffffffffffffffffffffffffffffffffff1673ffffffffffffffffffffffffffffffffffffffff16815260200190815260200160002054901c169050919050565b60008373ffffffffffffffffffffffffffffffffffffffff1663150b7a02611bec61180d565b8786866040518563ffffffff1660e01b8152600401611c0e94939291906133dd565b6020604051808303816000875af1925050508015611c4a57506040513d601f19601f82011682018060405250810190611c47919061343e565b60015b611cc3573d8060008114611c7a576040519150601f19603f3d011682016040523d82523d6000602084013e611c7f565b606091505b506000815103611cbb576040517fd1a57ed600000000000000000000000000000000000000000000000000000000815260040160405180910390fd5b805181602001fd5b63150b7a0260e01b7bffffffffffffffffffffffffffffffffffffffffffffffffffffffff1916817bffffffffffffffffffffffffffffffffffffffffffffffffffffffff191614915050949350505050565b6060600a8054611d2590612942565b80601f0160208091040260200160405190810160405280929190818152602001828054611d5190612942565b8015611d9e5780601f10611d7357610100808354040283529160200191611d9e565b820191906000526020600020905b815481529060010190602001808311611d8157829003601f168201915b5050505050905090565b606060006001611db784611f24565b01905060008167ffffffffffffffff811115611dd657611dd5612575565b5b6040519080825280601f01601f191660200182016040528015611e085781602001600182028036833780820191505090505b509050600082602001820190505b600115611e6b578080600190039150507f3031323334353637383961626364656600000000000000000000000000000000600a86061a8153600a8581611e5f57611e5e61346b565b5b04945060008503611e16575b819350505050919050565b60009392505050565b600033905090565b611e918383612077565b60008373ffffffffffffffffffffffffffffffffffffffff163b14611f1f57600080549050600083820390505b611ed16000868380600101945086611bc6565b611f07576040517fd1a57ed600000000000000000000000000000000000000000000000000000000815260040160405180910390fd5b818110611ebe578160005414611f1c57600080fd5b50505b505050565b600080600090507a184f03e93ff9f4daa797ed6e38ed64bf6a1f0100000000000000008310611f82577a184f03e93ff9f4daa797ed6e38ed64bf6a1f0100000000000000008381611f7857611f7761346b565b5b0492506040810190505b6d04ee2d6d415b85acef81000000008310611fbf576d04ee2d6d415b85acef81000000008381611fb557611fb461346b565b5b0492506020810190505b662386f26fc100008310611fee57662386f26fc100008381611fe457611fe361346b565b5b0492506010810190505b6305f5e1008310612017576305f5e100838161200d5761200c61346b565b5b0492506008810190505b612710831061203c5761271083816120325761203161346b565b5b0492506004810190505b6064831061205f57606483816120555761205461346b565b5b0492506002810190505b600a831061206e576001810190505b80915050919050565b600080549050600082036120b7576040517fb562e8dd00000000000000000000000000000000000000000000000000000000815260040160405180910390fd5b6120c46000848385611955565b600160406001901b178202600560008573ffffffffffffffffffffffffffffffffffffffff1673ffffffffffffffffffffffffffffffffffffffff1681526020019081526020016000206000828254019250508190555061213b8361212c600086600061195b565b61213585612232565b17611983565b6004600083815260200190815260200160002081905550600080838301905073ffffffffffffffffffffffffffffffffffffffff85169150828260007fddf252ad1be2c89b69c2b068fc378daa952ba7f163c4a11628f55a4df523b3ef600080a4600183015b8181146121dc57808360007fddf252ad1be2c89b69c2b068fc378daa952ba7f163c4a11628f55a4df523b3ef600080a46001810190506121a1565b5060008203612217576040517f2e07630000000000000000000000000000000000000000000000000000000000815260040160405180910390fd5b80600081905550505061222d60008483856119ae565b505050565b60006001821460e11b9050919050565b6000604051905090565b600080fd5b600080fd5b60007fffffffff0000000000000000000000000000000000000000000000000000000082169050919050565b61228b81612256565b811461229657600080fd5b50565b6000813590506122a881612282565b92915050565b6000602082840312156122c4576122c361224c565b5b60006122d284828501612299565b91505092915050565b60008115159050919050565b6122f0816122db565b82525050565b600060208201905061230b60008301846122e7565b92915050565b6000819050919050565b61232481612311565b82525050565b600060208201905061233f600083018461231b565b92915050565b600081519050919050565b600082825260208201905092915050565b60005b8381101561237f578082015181840152602081019050612364565b60008484015250505050565b6000601f19601f8301169050919050565b60006123a782612345565b6123b18185612350565b93506123c1818560208601612361565b6123ca8161238b565b840191505092915050565b600060208201905081810360008301526123ef818461239c565b905092915050565b61240081612311565b811461240b57600080fd5b50565b60008135905061241d816123f7565b92915050565b6000602082840312156124395761243861224c565b5b60006124478482850161240e565b91505092915050565b600073ffffffffffffffffffffffffffffffffffffffff82169050919050565b600061247b82612450565b9050919050565b61248b81612470565b82525050565b60006020820190506124a66000830184612482565b92915050565b6124b581612470565b81146124c057600080fd5b50565b6000813590506124d2816124ac565b92915050565b600080604083850312156124ef576124ee61224c565b5b60006124fd858286016124c3565b925050602061250e8582860161240e565b9150509250929050565b6000806000606084860312156125315761253061224c565b5b600061253f868287016124c3565b9350506020612550868287016124c3565b92505060406125618682870161240e565b9150509250925092565b600080fd5b600080fd5b7f4e487b7100000000000000000000000000000000000000000000000000000000600052604160045260246000fd5b6125ad8261238b565b810181811067ffffffffffffffff821117156125cc576125cb612575565b5b80604052505050565b60006125df612242565b90506125eb82826125a4565b919050565b600067ffffffffffffffff82111561260b5761260a612575565b5b6126148261238b565b9050602081019050919050565b82818337600083830152505050565b600061264361263e846125f0565b6125d5565b90508281526020810184848401111561265f5761265e612570565b5b61266a848285612621565b509392505050565b600082601f8301126126875761268661256b565b5b8135612697848260208601612630565b91505092915050565b6000602082840312156126b6576126b561224c565b5b600082013567ffffffffffffffff8111156126d4576126d3612251565b5b6126e084828501612672565b91505092915050565b6000602082840312156126ff576126fe61224c565b5b600061270d848285016124c3565b91505092915050565b61271f816122db565b811461272a57600080fd5b50565b60008135905061273c81612716565b92915050565b600080604083850312156127595761275861224c565b5b6000612767858286016124c3565b92505060206127788582860161272d565b9150509250929050565b600067ffffffffffffffff82111561279d5761279c612575565b5b6127a68261238b565b9050602081019050919050565b60006127c66127c184612782565b6125d5565b9050828152602081018484840111156127e2576127e1612570565b5b6127ed848285612621565b509392505050565b600082601f83011261280a5761280961256b565b5b813561281a8482602086016127b3565b91505092915050565b6000806000806080858703121561283d5761283c61224c565b5b600061284b878288016124c3565b945050602061285c878288016124c3565b935050604061286d8782880161240e565b925050606085013567ffffffffffffffff81111561288e5761288d612251565b5b61289a878288016127f5565b91505092959194509250565b600080604083850312156128bd576128bc61224c565b5b60006128cb858286016124c3565b92505060206128dc858286016124c3565b9150509250929050565b6000602082840312156128fc576128fb61224c565b5b600061290a8482850161272d565b91505092915050565b7f4e487b7100000000000000000000000000000000000000000000000000000000600052602260045260246000fd5b6000600282049050600182168061295a57607f821691505b60208210810361296d5761296c612913565b5b50919050565b600081905092915050565b50565b600061298e600083612973565b91506129998261297e565b600082019050919050565b60006129af82612981565b9150819050919050565b60008190508160005260206000209050919050565b60006020601f8301049050919050565b600082821b905092915050565b600060088302612a1b7fffffffffffffffffffffffffffffffffffffffffffffffffffffffffffffffff826129de565b612a2586836129de565b95508019841693508086168417925050509392505050565b6000819050919050565b6000612a62612a5d612a5884612311565b612a3d565b612311565b9050919050565b6000819050919050565b612a7c83612a47565b612a90612a8882612a69565b8484546129eb565b825550505050565b600090565b612aa5612a98565b612ab0818484612a73565b505050565b5b81811015612ad457612ac9600082612a9d565b600181019050612ab6565b5050565b601f821115612b1957612aea816129b9565b612af3846129ce565b81016020851015612b02578190505b612b16612b0e856129ce565b830182612ab5565b50505b505050565b600082821c905092915050565b6000612b3c60001984600802612b1e565b1980831691505092915050565b6000612b558383612b2b565b9150826002028217905092915050565b612b6e82612345565b67ffffffffffffffff811115612b8757612b86612575565b5b612b918254612942565b612b9c828285612ad8565b600060209050601f831160018114612bcf5760008415612bbd578287015190505b612bc78582612b49565b865550612c2f565b601f198416612bdd866129b9565b60005b82811015612c0557848901518255600182019150602085019450602081019050612be0565b86831015612c225784890151612c1e601f891682612b2b565b8355505b6001600288020188555050505b505050505050565b7f526571756573746564206d696e7420636f756e7420657863656564732072657360008201527f65727665206c696d697400000000000000000000000000000000000000000000602082015250565b6000612c93602a83612350565b9150612c9e82612c37565b604082019050919050565b60006020820190508181036000830152612cc281612c86565b9050919050565b7f4e487b7100000000000000000000000000000000000000000000000000000000600052601160045260246000fd5b6000612d0382612311565b9150612d0e83612311565b9250828203905081811115612d2657612d25612cc9565b5b92915050565b7f4d696e74206973206e6f74206163746976650000000000000000000000000000600082015250565b6000612d62601283612350565b9150612d6d82612d2c565b602082019050919050565b60006020820190508181036000830152612d9181612d55565b9050919050565b6000612da382612311565b9150612dae83612311565b9250828201905080821115612dc657612dc5612cc9565b5b92915050565b7f526571756573746564206d696e7420636f756e7420657863656564732074686560008201527f20737570706c7900000000000000000000000000000000000000000000000000602082015250565b6000612e28602783612350565b9150612e3382612dcc565b604082019050919050565b60006020820190508181036000830152612e5781612e1b565b9050919050565b7f526571756573746564206d696e7420636f756e7420776f756c6420657863656560008201527f64206d696e74206c696d697420666f72206163636f756e740000000000000000602082015250565b6000612eba603883612350565b9150612ec582612e5e565b604082019050919050565b60006020820190508181036000830152612ee981612ead565b9050919050565b6000612efb82612311565b9150612f0683612311565b9250828202612f1481612311565b91508282048414831517612f2b57612f2a612cc9565b5b5092915050565b7f4e6f7420656e6f7567682045544820666f72206d696e7420636f756e74000000600082015250565b6000612f68601d83612350565b9150612f7382612f32565b602082019050919050565b60006020820190508181036000830152612f9781612f5b565b9050919050565b7f636f6e7472616374732063616e2774206d696e74000000000000000000000000600082015250565b6000612fd4601483612350565b9150612fdf82612f9e565b602082019050919050565b6000602082019050818103600083015261300381612fc7565b9050919050565b7f526571756573746564206d696e7420636f756e7420657863656564732066726560008201527f65206d696e7420737570706c7900000000000000000000000000000000000000602082015250565b6000613066602d83612350565b91506130718261300a565b604082019050919050565b6000602082019050818103600083015261309581613059565b9050919050565b7f4552433732314d657461646174613a2055524920717565727920666f72206e6f60008201527f6e6578697374656e7420746f6b656e0000000000000000000000000000000000602082015250565b60006130f8602f83612350565b91506131038261309c565b604082019050919050565b60006020820190508181036000830152613127816130eb565b9050919050565b600081905092915050565b600061314482612345565b61314e818561312e565b935061315e818560208601612361565b80840191505092915050565b6000815461317781612942565b613181818661312e565b9450600182166000811461319c57600181146131b1576131e4565b60ff19831686528115158202860193506131e4565b6131ba856129b9565b60005b838110156131dc578154818901526001820191506020810190506131bd565b838801955050505b50505092915050565b60006131f98286613139565b91506132058285613139565b9150613211828461316a565b9150819050949350505050565b7f4f776e61626c653a206e6577206f776e657220697320746865207a65726f206160008201527f6464726573730000000000000000000000000000000000000000000000000000602082015250565b600061327a602683612350565b91506132858261321e565b604082019050919050565b600060208201905081810360008301526132a98161326d565b9050919050565b7f4f776e61626c653a2063616c6c6572206973206e6f7420746865206f776e6572600082015250565b60006132e6602083612350565b91506132f1826132b0565b602082019050919050565b60006020820190508181036000830152613315816132d9565b9050919050565b7f5265656e7472616e637947756172643a207265656e7472616e742063616c6c00600082015250565b6000613352601f83612350565b915061335d8261331c565b602082019050919050565b6000602082019050818103600083015261338181613345565b9050919050565b600081519050919050565b600082825260208201905092915050565b60006133af82613388565b6133b98185613393565b93506133c9818560208601612361565b6133d28161238b565b840191505092915050565b60006080820190506133f26000830187612482565b6133ff6020830186612482565b61340c604083018561231b565b818103606083015261341e81846133a4565b905095945050505050565b60008151905061343881612282565b92915050565b6000602082840312156134545761345361224c565b5b600061346284828501613429565b91505092915050565b7f4e487b7100000000000000000000000000000000000000000000000000000000600052601260045260246000fdfea264697066735822122008824bfc9bd8893401fa229add80fce1e5d66e498c59e36076e49eded534e3c564736f6c63430008110033",
  "linkReferences": {},
  "deployedLinkReferences": {}
}