{
    "_format": "hh-sol-artifact-1",
    "contractName": "SwordsTest",
    "sourceName": "contracts/SwordsTest.sol",
    "abi": [
        {
            "inputs": [],
            "stateMutability": "nonpayable",
            "type": "constructor"
        },
        {
            "inputs": [],
            "name": "ApprovalCallerNotOwnerNorApproved",
            "type": "error"
        },
        {
            "inputs": [],
            "name": "ApprovalQueryForNonexistentToken",
            "type": "error"
        },
        {
            "inputs": [],
            "name": "BalanceQueryForZeroAddress",
            "type": "error"
        },
        {
            "inputs": [],
            "name": "MintERC2309QuantityExceedsLimit",
            "type": "error"
        },
        {
            "inputs": [],
            "name": "MintToZeroAddress",
            "type": "error"
        },
        {
            "inputs": [],
            "name": "MintZeroQuantity",
            "type": "error"
        },
        {
            "inputs": [],
            "name": "OwnerQueryForNonexistentToken",
            "type": "error"
        },
        {
            "inputs": [],
            "name": "OwnershipNotInitializedForExtraData",
            "type": "error"
        },
        {
            "inputs": [],
            "name": "TransferCallerNotOwnerNorApproved",
            "type": "error"
        },
        {
            "inputs": [],
            "name": "TransferFromIncorrectOwner",
            "type": "error"
        },
        {
            "inputs": [],
            "name": "TransferToNonERC721ReceiverImplementer",
            "type": "error"
        },
        {
            "inputs": [],
            "name": "TransferToZeroAddress",
            "type": "error"
        },
        {
            "inputs": [],
            "name": "URIQueryForNonexistentToken",
            "type": "error"
        },
        {
            "anonymous": false,
            "inputs": [
                {
                    "indexed": true,
                    "internalType": "address",
                    "name": "owner",
                    "type": "address"
                },
                {
                    "indexed": true,
                    "internalType": "address",
                    "name": "approved",
                    "type": "address"
                },
                {
                    "indexed": true,
                    "internalType": "uint256",
                    "name": "tokenId",
                    "type": "uint256"
                }
            ],
            "name": "Approval",
            "type": "event"
        },
        {
            "anonymous": false,
            "inputs": [
                {
                    "indexed": true,
                    "internalType": "address",
                    "name": "owner",
                    "type": "address"
                },
                {
                    "indexed": true,
                    "internalType": "address",
                    "name": "operator",
                    "type": "address"
                },
                {
                    "indexed": false,
                    "internalType": "bool",
                    "name": "approved",
                    "type": "bool"
                }
            ],
            "name": "ApprovalForAll",
            "type": "event"
        },
        {
            "anonymous": false,
            "inputs": [
                {
                    "indexed": true,
                    "internalType": "uint256",
                    "name": "fromTokenId",
                    "type": "uint256"
                },
                {
                    "indexed": false,
                    "internalType": "uint256",
                    "name": "toTokenId",
                    "type": "uint256"
                },
                {
                    "indexed": true,
                    "internalType": "address",
                    "name": "from",
                    "type": "address"
                },
                {
                    "indexed": true,
                    "internalType": "address",
                    "name": "to",
                    "type": "address"
                }
            ],
            "name": "ConsecutiveTransfer",
            "type": "event"
        },
        {
            "anonymous": false,
            "inputs": [
                {
                    "indexed": true,
                    "internalType": "address",
                    "name": "previousOwner",
                    "type": "address"
                },
                {
                    "indexed": true,
                    "internalType": "address",
                    "name": "newOwner",
                    "type": "address"
                }
            ],
            "name": "OwnershipTransferred",
            "type": "event"
        },
        {
            "anonymous": false,
            "inputs": [
                {
                    "indexed": true,
                    "internalType": "address",
                    "name": "from",
                    "type": "address"
                },
                {
                    "indexed": true,
                    "internalType": "address",
                    "name": "to",
                    "type": "address"
                },
                {
                    "indexed": true,
                    "internalType": "uint256",
                    "name": "tokenId",
                    "type": "uint256"
                }
            ],
            "name": "Transfer",
            "type": "event"
        },
        {
            "inputs": [
                {
                    "internalType": "address",
                    "name": "to",
                    "type": "address"
                },
                {
                    "internalType": "uint256",
                    "name": "tokenId",
                    "type": "uint256"
                }
            ],
            "name": "approve",
            "outputs": [],
            "stateMutability": "payable",
            "type": "function"
        },
        {
            "inputs": [
                {
                    "internalType": "address",
                    "name": "owner",
                    "type": "address"
                }
            ],
            "name": "balanceOf",
            "outputs": [
                {
                    "internalType": "uint256",
                    "name": "",
                    "type": "uint256"
                }
            ],
            "stateMutability": "view",
            "type": "function"
        },
        {
            "inputs": [],
            "name": "baseExtension",
            "outputs": [
                {
                    "internalType": "string",
                    "name": "",
                    "type": "string"
                }
            ],
            "stateMutability": "view",
            "type": "function"
        },
        {
            "inputs": [],
            "name": "cost",
            "outputs": [
                {
                    "internalType": "uint256",
                    "name": "",
                    "type": "uint256"
                }
            ],
            "stateMutability": "view",
            "type": "function"
        },
        {
            "inputs": [
                {
                    "internalType": "uint256",
                    "name": "tokenId",
                    "type": "uint256"
                }
            ],
            "name": "getApproved",
            "outputs": [
                {
                    "internalType": "address",
                    "name": "",
                    "type": "address"
                }
            ],
            "stateMutability": "view",
            "type": "function"
        },
        {
            "inputs": [
                {
                    "internalType": "address",
                    "name": "owner",
                    "type": "address"
                },
                {
                    "internalType": "address",
                    "name": "operator",
                    "type": "address"
                }
            ],
            "name": "isApprovedForAll",
            "outputs": [
                {
                    "internalType": "bool",
                    "name": "",
                    "type": "bool"
                }
            ],
            "stateMutability": "view",
            "type": "function"
        },
        {
            "inputs": [
                {
                    "internalType": "uint256",
                    "name": "_count",
                    "type": "uint256"
                }
            ],
            "name": "mint",
            "outputs": [],
            "stateMutability": "payable",
            "type": "function"
        },
        {
            "inputs": [],
            "name": "mintActive",
            "outputs": [
                {
                    "internalType": "bool",
                    "name": "",
                    "type": "bool"
                }
            ],
            "stateMutability": "view",
            "type": "function"
        },
        {
            "inputs": [
                {
                    "internalType": "uint256",
                    "name": "_count",
                    "type": "uint256"
                }
            ],
            "name": "mintFree",
            "outputs": [],
            "stateMutability": "nonpayable",
            "type": "function"
        },
        {
            "inputs": [],
            "name": "mintLimit",
            "outputs": [
                {
                    "internalType": "uint256",
                    "name": "",
                    "type": "uint256"
                }
            ],
            "stateMutability": "view",
            "type": "function"
        },
        {
            "inputs": [],
            "name": "name",
            "outputs": [
                {
                    "internalType": "string",
                    "name": "",
                    "type": "string"
                }
            ],
            "stateMutability": "view",
            "type": "function"
        },
        {
            "inputs": [],
            "name": "owner",
            "outputs": [
                {
                    "internalType": "address",
                    "name": "",
                    "type": "address"
                }
            ],
            "stateMutability": "view",
            "type": "function"
        },
        {
            "inputs": [
                {
                    "internalType": "uint256",
                    "name": "tokenId",
                    "type": "uint256"
                }
            ],
            "name": "ownerOf",
            "outputs": [
                {
                    "internalType": "address",
                    "name": "",
                    "type": "address"
                }
            ],
            "stateMutability": "view",
            "type": "function"
        },
        {
            "inputs": [],
            "name": "releaseReserve",
            "outputs": [],
            "stateMutability": "nonpayable",
            "type": "function"
        },
        {
            "inputs": [],
            "name": "renounceOwnership",
            "outputs": [],
            "stateMutability": "nonpayable",
            "type": "function"
        },
        {
            "inputs": [
                {
                    "internalType": "address",
                    "name": "owner",
                    "type": "address"
                },
                {
                    "internalType": "uint256",
                    "name": "_count",
                    "type": "uint256"
                }
            ],
            "name": "reserveTokens",
            "outputs": [],
            "stateMutability": "nonpayable",
            "type": "function"
        },
        {
            "inputs": [
                {
                    "internalType": "address",
                    "name": "from",
                    "type": "address"
                },
                {
                    "internalType": "address",
                    "name": "to",
                    "type": "address"
                },
                {
                    "internalType": "uint256",
                    "name": "tokenId",
                    "type": "uint256"
                }
            ],
            "name": "safeTransferFrom",
            "outputs": [],
            "stateMutability": "payable",
            "type": "function"
        },
        {
            "inputs": [
                {
                    "internalType": "address",
                    "name": "from",
                    "type": "address"
                },
                {
                    "internalType": "address",
                    "name": "to",
                    "type": "address"
                },
                {
                    "internalType": "uint256",
                    "name": "tokenId",
                    "type": "uint256"
                },
                {
                    "internalType": "bytes",
                    "name": "_data",
                    "type": "bytes"
                }
            ],
            "name": "safeTransferFrom",
            "outputs": [],
            "stateMutability": "payable",
            "type": "function"
        },
        {
            "inputs": [
                {
                    "internalType": "address",
                    "name": "operator",
                    "type": "address"
                },
                {
                    "internalType": "bool",
                    "name": "approved",
                    "type": "bool"
                }
            ],
            "name": "setApprovalForAll",
            "outputs": [],
            "stateMutability": "nonpayable",
            "type": "function"
        },
        {
            "inputs": [
                {
                    "internalType": "string",
                    "name": "uri",
                    "type": "string"
                }
            ],
            "name": "setBaseURI",
            "outputs": [],
            "stateMutability": "nonpayable",
            "type": "function"
        },
        {
            "inputs": [
                {
                    "internalType": "uint256",
                    "name": "_cost",
                    "type": "uint256"
                }
            ],
            "name": "setCost",
            "outputs": [],
            "stateMutability": "nonpayable",
            "type": "function"
        },
        {
            "inputs": [
                {
                    "internalType": "bool",
                    "name": "_mintActive",
                    "type": "bool"
                }
            ],
            "name": "setMintActive",
            "outputs": [],
            "stateMutability": "nonpayable",
            "type": "function"
        },
        {
            "inputs": [
                {
                    "internalType": "uint256",
                    "name": "_mintLimit",
                    "type": "uint256"
                }
            ],
            "name": "setMintLimit",
            "outputs": [],
            "stateMutability": "nonpayable",
            "type": "function"
        },
        {
            "inputs": [],
            "name": "supply",
            "outputs": [
                {
                    "internalType": "uint256",
                    "name": "",
                    "type": "uint256"
                }
            ],
            "stateMutability": "view",
            "type": "function"
        },
        {
            "inputs": [
                {
                    "internalType": "bytes4",
                    "name": "interfaceId",
                    "type": "bytes4"
                }
            ],
            "name": "supportsInterface",
            "outputs": [
                {
                    "internalType": "bool",
                    "name": "",
                    "type": "bool"
                }
            ],
            "stateMutability": "view",
            "type": "function"
        },
        {
            "inputs": [],
            "name": "symbol",
            "outputs": [
                {
                    "internalType": "string",
                    "name": "",
                    "type": "string"
                }
            ],
            "stateMutability": "view",
            "type": "function"
        },
        {
            "inputs": [
                {
                    "internalType": "uint256",
                    "name": "_tokenId",
                    "type": "uint256"
                }
            ],
            "name": "tokenURI",
            "outputs": [
                {
                    "internalType": "string",
                    "name": "",
                    "type": "string"
                }
            ],
            "stateMutability": "view",
            "type": "function"
        },
        {
            "inputs": [],
            "name": "totalSupply",
            "outputs": [
                {
                    "internalType": "uint256",
                    "name": "",
                    "type": "uint256"
                }
            ],
            "stateMutability": "view",
            "type": "function"
        },
        {
            "inputs": [
                {
                    "internalType": "address",
                    "name": "from",
                    "type": "address"
                },
                {
                    "internalType": "address",
                    "name": "to",
                    "type": "address"
                },
                {
                    "internalType": "uint256",
                    "name": "tokenId",
                    "type": "uint256"
                }
            ],
            "name": "transferFrom",
            "outputs": [],
            "stateMutability": "payable",
            "type": "function"
        },
        {
            "inputs": [
                {
                    "internalType": "address",
                    "name": "newOwner",
                    "type": "address"
                }
            ],
            "name": "transferOwnership",
            "outputs": [],
            "stateMutability": "nonpayable",
            "type": "function"
        },
        {
            "inputs": [],
            "name": "withdraw",
            "outputs": [],
            "stateMutability": "payable",
            "type": "function"
        }
    ],
    "bytecode": "0x60806040526040518060400160405280600581526020017f2e6a736f6e000000000000000000000000000000000000000000000000000000815250600b90816200004a9190620004ba565b506000600c60006101000a81548160ff021916908315150217905550600a600d556002600e556002600f5560026010556611c37937e080006011553480156200009257600080fd5b506040518060400160405280600a81526020017f53776f72647354657374000000000000000000000000000000000000000000008152506040518060400160405280600481526020017f53575454000000000000000000000000000000000000000000000000000000008152508160029081620001109190620004ba565b508060039081620001229190620004ba565b50620001336200016960201b60201c565b60008190555050506200015b6200014f6200017260201b60201c565b6200017a60201b60201c565b6001600981905550620005a1565b60006001905090565b600033905090565b6000600860009054906101000a900473ffffffffffffffffffffffffffffffffffffffff16905081600860006101000a81548173ffffffffffffffffffffffffffffffffffffffff021916908373ffffffffffffffffffffffffffffffffffffffff1602179055508173ffffffffffffffffffffffffffffffffffffffff168173ffffffffffffffffffffffffffffffffffffffff167f8be0079c531659141344cd1fd0a4f28419497f9722a3daafe3b4186f6b6457e060405160405180910390a35050565b600081519050919050565b7f4e487b7100000000000000000000000000000000000000000000000000000000600052604160045260246000fd5b7f4e487b7100000000000000000000000000000000000000000000000000000000600052602260045260246000fd5b60006002820490506001821680620002c257607f821691505b602082108103620002d857620002d76200027a565b5b50919050565b60008190508160005260206000209050919050565b60006020601f8301049050919050565b600082821b905092915050565b600060088302620003427fffffffffffffffffffffffffffffffffffffffffffffffffffffffffffffffff8262000303565b6200034e868362000303565b95508019841693508086168417925050509392505050565b6000819050919050565b6000819050919050565b60006200039b620003956200038f8462000366565b62000370565b62000366565b9050919050565b6000819050919050565b620003b7836200037a565b620003cf620003c682620003a2565b84845462000310565b825550505050565b600090565b620003e6620003d7565b620003f3818484620003ac565b505050565b5b818110156200041b576200040f600082620003dc565b600181019050620003f9565b5050565b601f8211156200046a576200043481620002de565b6200043f84620002f3565b810160208510156200044f578190505b620004676200045e85620002f3565b830182620003f8565b50505b505050565b600082821c905092915050565b60006200048f600019846008026200046f565b1980831691505092915050565b6000620004aa83836200047c565b9150826002028217905092915050565b620004c58262000240565b67ffffffffffffffff811115620004e157620004e06200024b565b5b620004ed8254620002a9565b620004fa8282856200041f565b600060209050601f8311600181146200053257600084156200051d578287015190505b6200052985826200049c565b86555062000599565b601f1984166200054286620002de565b60005b828110156200056c5784890151825560018201915060208501945060208101905062000545565b868310156200058c578489015162000588601f8916826200047c565b8355505b6001600288020188555050505b505050505050565b61338880620005b16000396000f3fe6080604052600436106101d85760003560e01c8063715018a611610102578063a414673311610095578063d3933ada11610064578063d3933ada14610634578063e985e9c51461064b578063ee1cc94414610688578063f2fde38b146106b1576101d8565b8063a414673314610587578063b88d4fde146105b0578063c6682862146105cc578063c87b56dd146105f7576101d8565b8063996517cf116100d1578063996517cf146104ee5780639e6a1d7d14610519578063a0712d6814610542578063a22cb4651461055e576101d8565b8063715018a61461045857806378cf19e91461046f5780638da5cb5b1461049857806395d89b41146104c3576101d8565b806323b872dd1161017a57806344a0d68a1161014957806344a0d68a1461038c57806355f804b3146103b55780636352211e146103de57806370a082311461041b576101d8565b806323b872dd1461031f57806325fd90f31461033b5780633ccfd60b1461036657806342842e0e14610370576101d8565b8063081812fc116101b6578063081812fc14610270578063095ea7b3146102ad57806313faede6146102c957806318160ddd146102f4576101d8565b806301ffc9a7146101dd578063047fc9aa1461021a57806306fdde0314610245575b600080fd5b3480156101e957600080fd5b5061020460048036038101906101ff91906121d2565b6106da565b604051610211919061221a565b60405180910390f35b34801561022657600080fd5b5061022f61076c565b60405161023c919061224e565b60405180910390f35b34801561025157600080fd5b5061025a610772565b60405161026791906122f9565b60405180910390f35b34801561027c57600080fd5b5061029760048036038101906102929190612347565b610804565b6040516102a491906123b5565b60405180910390f35b6102c760048036038101906102c291906123fc565b610883565b005b3480156102d557600080fd5b506102de6109c7565b6040516102eb919061224e565b60405180910390f35b34801561030057600080fd5b506103096109cd565b604051610316919061224e565b60405180910390f35b6103396004803603810190610334919061243c565b6109e4565b005b34801561034757600080fd5b50610350610d06565b60405161035d919061221a565b60405180910390f35b61036e610d19565b005b61038a6004803603810190610385919061243c565b610db1565b005b34801561039857600080fd5b506103b360048036038101906103ae9190612347565b610dd1565b005b3480156103c157600080fd5b506103dc60048036038101906103d791906125c4565b610de3565b005b3480156103ea57600080fd5b5061040560048036038101906104009190612347565b610dfe565b60405161041291906123b5565b60405180910390f35b34801561042757600080fd5b50610442600480360381019061043d919061260d565b610e10565b60405161044f919061224e565b60405180910390f35b34801561046457600080fd5b5061046d610ec8565b005b34801561047b57600080fd5b50610496600480360381019061049191906123fc565b610edc565b005b3480156104a457600080fd5b506104ad610f5b565b6040516104ba91906123b5565b60405180910390f35b3480156104cf57600080fd5b506104d8610f85565b6040516104e591906122f9565b60405180910390f35b3480156104fa57600080fd5b50610503611017565b604051610510919061224e565b60405180910390f35b34801561052557600080fd5b50610540600480360381019061053b9190612347565b61101d565b005b61055c60048036038101906105579190612347565b61102f565b005b34801561056a57600080fd5b5061058560048036038101906105809190612666565b6111af565b005b34801561059357600080fd5b506105ae60048036038101906105a99190612347565b6112ba565b005b6105ca60048036038101906105c59190612747565b6113d9565b005b3480156105d857600080fd5b506105e161144c565b6040516105ee91906122f9565b60405180910390f35b34801561060357600080fd5b5061061e60048036038101906106199190612347565b6114da565b60405161062b91906122f9565b60405180910390f35b34801561064057600080fd5b50610649611584565b005b34801561065757600080fd5b50610672600480360381019061066d91906127ca565b611596565b60405161067f919061221a565b60405180910390f35b34801561069457600080fd5b506106af60048036038101906106aa919061280a565b61162a565b005b3480156106bd57600080fd5b506106d860048036038101906106d3919061260d565b61164f565b005b60006301ffc9a760e01b827bffffffffffffffffffffffffffffffffffffffffffffffffffffffff1916148061073557506380ac58cd60e01b827bffffffffffffffffffffffffffffffffffffffffffffffffffffffff1916145b806107655750635b5e139f60e01b827bffffffffffffffffffffffffffffffffffffffffffffffffffffffff1916145b9050919050565b600d5481565b60606002805461078190612866565b80601f01602080910402602001604051908101604052809291908181526020018280546107ad90612866565b80156107fa5780601f106107cf576101008083540402835291602001916107fa565b820191906000526020600020905b8154815290600101906020018083116107dd57829003601f168201915b5050505050905090565b600061080f826116d2565b610845576040517fcf4700e400000000000000000000000000000000000000000000000000000000815260040160405180910390fd5b6006600083815260200190815260200160002060000160009054906101000a900473ffffffffffffffffffffffffffffffffffffffff169050919050565b600061088e82610dfe565b90508073ffffffffffffffffffffffffffffffffffffffff166108af611731565b73ffffffffffffffffffffffffffffffffffffffff1614610912576108db816108d6611731565b611596565b610911576040517fcfb3b94200000000000000000000000000000000000000000000000000000000815260040160405180910390fd5b5b826006600084815260200190815260200160002060000160006101000a81548173ffffffffffffffffffffffffffffffffffffffff021916908373ffffffffffffffffffffffffffffffffffffffff160217905550818373ffffffffffffffffffffffffffffffffffffffff168273ffffffffffffffffffffffffffffffffffffffff167f8c5be1e5ebec7d5bd14f71427d1e84f3dd0314c0f7b2291e5b200ac8c7c3b92560405160405180910390a4505050565b60115481565b60006109d7611739565b6001546000540303905090565b60006109ef82611742565b90508373ffffffffffffffffffffffffffffffffffffffff168173ffffffffffffffffffffffffffffffffffffffff1614610a56576040517fa114810000000000000000000000000000000000000000000000000000000000815260040160405180910390fd5b600080610a628461180e565b91509150610a788187610a73611731565b611835565b610ac457610a8d86610a88611731565b611596565b610ac3576040517f59c896be00000000000000000000000000000000000000000000000000000000815260040160405180910390fd5b5b600073ffffffffffffffffffffffffffffffffffffffff168573ffffffffffffffffffffffffffffffffffffffff1603610b2a576040517fea553b3400000000000000000000000000000000000000000000000000000000815260040160405180910390fd5b610b378686866001611879565b8015610b4257600082555b600560008773ffffffffffffffffffffffffffffffffffffffff1673ffffffffffffffffffffffffffffffffffffffff168152602001908152602001600020600081546001900391905081905550600560008673ffffffffffffffffffffffffffffffffffffffff1673ffffffffffffffffffffffffffffffffffffffff1681526020019081526020016000206000815460010191905081905550610c1085610bec88888761187f565b7c0200000000000000000000000000000000000000000000000000000000176118a7565b600460008681526020019081526020016000208190555060007c0200000000000000000000000000000000000000000000000000000000841603610c965760006001850190506000600460008381526020019081526020016000205403610c94576000548114610c93578360046000838152602001908152602001600020819055505b5b505b838573ffffffffffffffffffffffffffffffffffffffff168773ffffffffffffffffffffffffffffffffffffffff167fddf252ad1be2c89b69c2b068fc378daa952ba7f163c4a11628f55a4df523b3ef60405160405180910390a4610cfe86868660016118d2565b505050505050565b600c60009054906101000a900460ff1681565b610d216118d8565b610d29611956565b6000610d33610f5b565b73ffffffffffffffffffffffffffffffffffffffff1647604051610d56906128c8565b60006040518083038185875af1925050503d8060008114610d93576040519150601f19603f3d011682016040523d82523d6000602084013e610d98565b606091505b5050905080610da657600080fd5b50610daf6119a5565b565b610dcc838383604051806020016040528060008152506113d9565b505050565b610dd96118d8565b8060118190555050565b610deb6118d8565b80600a9081610dfa9190612a89565b5050565b6000610e0982611742565b9050919050565b60008073ffffffffffffffffffffffffffffffffffffffff168273ffffffffffffffffffffffffffffffffffffffff1603610e77576040517f8f4eb60400000000000000000000000000000000000000000000000000000000815260040160405180910390fd5b67ffffffffffffffff600560008473ffffffffffffffffffffffffffffffffffffffff1673ffffffffffffffffffffffffffffffffffffffff16815260200190815260200160002054169050919050565b610ed06118d8565b610eda60006119af565b565b610ee4611956565b610eec6118d8565b600f54811115610f31576040517f08c379a0000000000000000000000000000000000000000000000000000000008152600401610f2890612bcd565b60405180910390fd5b610f3b8282611a75565b80600f54610f499190612c1c565b600f81905550610f576119a5565b5050565b6000600860009054906101000a900473ffffffffffffffffffffffffffffffffffffffff16905090565b606060038054610f9490612866565b80601f0160208091040260200160405190810160405280929190818152602001828054610fc090612866565b801561100d5780601f10610fe25761010080835404028352916020019161100d565b820191906000526020600020905b815481529060010190602001808311610ff057829003601f168201915b5050505050905090565b600e5481565b6110256118d8565b80600e8190555050565b611037611956565b80600c60009054906101000a900460ff16611087576040517f08c379a000000000000000000000000000000000000000000000000000000000815260040161107e90612c9c565b60405180910390fd5b81600f54600d546110989190612c1c565b816110a16109cd565b6110ab9190612cbc565b11156110ec576040517f08c379a00000000000000000000000000000000000000000000000000000000081526004016110e390612d62565b60405180910390fd5b82600e54816110fa33611a93565b6111049190612cbc565b1115611145576040517f08c379a000000000000000000000000000000000000000000000000000000000815260040161113c90612df4565b60405180910390fd5b83806011546111549190612e14565b341015611196576040517f08c379a000000000000000000000000000000000000000000000000000000000815260040161118d90612ea2565b60405180910390fd5b6111a03386611a75565b505050506111ac6119a5565b50565b80600760006111bc611731565b73ffffffffffffffffffffffffffffffffffffffff1673ffffffffffffffffffffffffffffffffffffffff16815260200190815260200160002060008473ffffffffffffffffffffffffffffffffffffffff1673ffffffffffffffffffffffffffffffffffffffff16815260200190815260200160002060006101000a81548160ff0219169083151502179055508173ffffffffffffffffffffffffffffffffffffffff16611269611731565b73ffffffffffffffffffffffffffffffffffffffff167f17307eab39ab6107e8899845ad3d59bd9653f200f220920489ca2b5937696c31836040516112ae919061221a565b60405180910390a35050565b6112c2611956565b80600c60009054906101000a900460ff16611312576040517f08c379a000000000000000000000000000000000000000000000000000000000815260040161130990612c9c565b60405180910390fd5b81600e548161132033611a93565b61132a9190612cbc565b111561136b576040517f08c379a000000000000000000000000000000000000000000000000000000000815260040161136290612df4565b60405180910390fd5b601054836113776109cd565b6113819190612cbc565b11156113c2576040517f08c379a00000000000000000000000000000000000000000000000000000000081526004016113b990612f34565b60405180910390fd5b6113cc3384611a75565b50506113d66119a5565b50565b6113e48484846109e4565b60008373ffffffffffffffffffffffffffffffffffffffff163b146114465761140f84848484611aea565b611445576040517fd1a57ed600000000000000000000000000000000000000000000000000000000815260040160405180910390fd5b5b50505050565b600b805461145990612866565b80601f016020809104026020016040519081016040528092919081815260200182805461148590612866565b80156114d25780601f106114a7576101008083540402835291602001916114d2565b820191906000526020600020905b8154815290600101906020018083116114b557829003601f168201915b505050505081565b60606114e5826116d2565b611524576040517f08c379a000000000000000000000000000000000000000000000000000000000815260040161151b90612fc6565b60405180910390fd5b600061152e611c3a565b9050600081511161154e576040518060200160405280600081525061157c565b8061155884611ccc565b600b60405160200161156c939291906130a5565b6040516020818303038152906040525b915050919050565b61158c6118d8565b6000600f81905550565b6000600760008473ffffffffffffffffffffffffffffffffffffffff1673ffffffffffffffffffffffffffffffffffffffff16815260200190815260200160002060008373ffffffffffffffffffffffffffffffffffffffff1673ffffffffffffffffffffffffffffffffffffffff16815260200190815260200160002060009054906101000a900460ff16905092915050565b6116326118d8565b80600c60006101000a81548160ff02191690831515021790555050565b6116576118d8565b600073ffffffffffffffffffffffffffffffffffffffff168173ffffffffffffffffffffffffffffffffffffffff16036116c6576040517f08c379a00000000000000000000000000000000000000000000000000000000081526004016116bd90613148565b60405180910390fd5b6116cf816119af565b50565b6000816116dd611739565b111580156116ec575060005482105b801561172a575060007c0100000000000000000000000000000000000000000000000000000000600460008581526020019081526020016000205416145b9050919050565b600033905090565b60006001905090565b60008082905080611751611739565b116117d7576000548110156117d65760006004600083815260200190815260200160002054905060007c01000000000000000000000000000000000000000000000000000000008216036117d4575b600081036117ca5760046000836001900393508381526020019081526020016000205490506117a0565b8092505050611809565b505b5b6040517fdf2d9b4200000000000000000000000000000000000000000000000000000000815260040160405180910390fd5b919050565b60008060006006600085815260200190815260200160002090508092508254915050915091565b600073ffffffffffffffffffffffffffffffffffffffff8316925073ffffffffffffffffffffffffffffffffffffffff821691508382148383141790509392505050565b50505050565b60008060e883901c905060e8611896868684611d9a565b62ffffff16901b9150509392505050565b600073ffffffffffffffffffffffffffffffffffffffff83169250814260a01b178317905092915050565b50505050565b6118e0611da3565b73ffffffffffffffffffffffffffffffffffffffff166118fe610f5b565b73ffffffffffffffffffffffffffffffffffffffff1614611954576040517f08c379a000000000000000000000000000000000000000000000000000000000815260040161194b906131b4565b60405180910390fd5b565b60026009540361199b576040517f08c379a000000000000000000000000000000000000000000000000000000000815260040161199290613220565b60405180910390fd5b6002600981905550565b6001600981905550565b6000600860009054906101000a900473ffffffffffffffffffffffffffffffffffffffff16905081600860006101000a81548173ffffffffffffffffffffffffffffffffffffffff021916908373ffffffffffffffffffffffffffffffffffffffff1602179055508173ffffffffffffffffffffffffffffffffffffffff168173ffffffffffffffffffffffffffffffffffffffff167f8be0079c531659141344cd1fd0a4f28419497f9722a3daafe3b4186f6b6457e060405160405180910390a35050565b611a8f828260405180602001604052806000815250611dab565b5050565b600067ffffffffffffffff6040600560008573ffffffffffffffffffffffffffffffffffffffff1673ffffffffffffffffffffffffffffffffffffffff16815260200190815260200160002054901c169050919050565b60008373ffffffffffffffffffffffffffffffffffffffff1663150b7a02611b10611731565b8786866040518563ffffffff1660e01b8152600401611b329493929190613295565b6020604051808303816000875af1925050508015611b6e57506040513d601f19601f82011682018060405250810190611b6b91906132f6565b60015b611be7573d8060008114611b9e576040519150601f19603f3d011682016040523d82523d6000602084013e611ba3565b606091505b506000815103611bdf576040517fd1a57ed600000000000000000000000000000000000000000000000000000000815260040160405180910390fd5b805181602001fd5b63150b7a0260e01b7bffffffffffffffffffffffffffffffffffffffffffffffffffffffff1916817bffffffffffffffffffffffffffffffffffffffffffffffffffffffff191614915050949350505050565b6060600a8054611c4990612866565b80601f0160208091040260200160405190810160405280929190818152602001828054611c7590612866565b8015611cc25780601f10611c9757610100808354040283529160200191611cc2565b820191906000526020600020905b815481529060010190602001808311611ca557829003601f168201915b5050505050905090565b606060006001611cdb84611e48565b01905060008167ffffffffffffffff811115611cfa57611cf9612499565b5b6040519080825280601f01601f191660200182016040528015611d2c5781602001600182028036833780820191505090505b509050600082602001820190505b600115611d8f578080600190039150507f3031323334353637383961626364656600000000000000000000000000000000600a86061a8153600a8581611d8357611d82613323565b5b04945060008503611d3a575b819350505050919050565b60009392505050565b600033905090565b611db58383611f9b565b60008373ffffffffffffffffffffffffffffffffffffffff163b14611e4357600080549050600083820390505b611df56000868380600101945086611aea565b611e2b576040517fd1a57ed600000000000000000000000000000000000000000000000000000000815260040160405180910390fd5b818110611de2578160005414611e4057600080fd5b50505b505050565b600080600090507a184f03e93ff9f4daa797ed6e38ed64bf6a1f0100000000000000008310611ea6577a184f03e93ff9f4daa797ed6e38ed64bf6a1f0100000000000000008381611e9c57611e9b613323565b5b0492506040810190505b6d04ee2d6d415b85acef81000000008310611ee3576d04ee2d6d415b85acef81000000008381611ed957611ed8613323565b5b0492506020810190505b662386f26fc100008310611f1257662386f26fc100008381611f0857611f07613323565b5b0492506010810190505b6305f5e1008310611f3b576305f5e1008381611f3157611f30613323565b5b0492506008810190505b6127108310611f60576127108381611f5657611f55613323565b5b0492506004810190505b60648310611f835760648381611f7957611f78613323565b5b0492506002810190505b600a8310611f92576001810190505b80915050919050565b60008054905060008203611fdb576040517fb562e8dd00000000000000000000000000000000000000000000000000000000815260040160405180910390fd5b611fe86000848385611879565b600160406001901b178202600560008573ffffffffffffffffffffffffffffffffffffffff1673ffffffffffffffffffffffffffffffffffffffff1681526020019081526020016000206000828254019250508190555061205f83612050600086600061187f565b61205985612156565b176118a7565b6004600083815260200190815260200160002081905550600080838301905073ffffffffffffffffffffffffffffffffffffffff85169150828260007fddf252ad1be2c89b69c2b068fc378daa952ba7f163c4a11628f55a4df523b3ef600080a4600183015b81811461210057808360007fddf252ad1be2c89b69c2b068fc378daa952ba7f163c4a11628f55a4df523b3ef600080a46001810190506120c5565b506000820361213b576040517f2e07630000000000000000000000000000000000000000000000000000000000815260040160405180910390fd5b80600081905550505061215160008483856118d2565b505050565b60006001821460e11b9050919050565b6000604051905090565b600080fd5b600080fd5b60007fffffffff0000000000000000000000000000000000000000000000000000000082169050919050565b6121af8161217a565b81146121ba57600080fd5b50565b6000813590506121cc816121a6565b92915050565b6000602082840312156121e8576121e7612170565b5b60006121f6848285016121bd565b91505092915050565b60008115159050919050565b612214816121ff565b82525050565b600060208201905061222f600083018461220b565b92915050565b6000819050919050565b61224881612235565b82525050565b6000602082019050612263600083018461223f565b92915050565b600081519050919050565b600082825260208201905092915050565b60005b838110156122a3578082015181840152602081019050612288565b60008484015250505050565b6000601f19601f8301169050919050565b60006122cb82612269565b6122d58185612274565b93506122e5818560208601612285565b6122ee816122af565b840191505092915050565b6000602082019050818103600083015261231381846122c0565b905092915050565b61232481612235565b811461232f57600080fd5b50565b6000813590506123418161231b565b92915050565b60006020828403121561235d5761235c612170565b5b600061236b84828501612332565b91505092915050565b600073ffffffffffffffffffffffffffffffffffffffff82169050919050565b600061239f82612374565b9050919050565b6123af81612394565b82525050565b60006020820190506123ca60008301846123a6565b92915050565b6123d981612394565b81146123e457600080fd5b50565b6000813590506123f6816123d0565b92915050565b6000806040838503121561241357612412612170565b5b6000612421858286016123e7565b925050602061243285828601612332565b9150509250929050565b60008060006060848603121561245557612454612170565b5b6000612463868287016123e7565b9350506020612474868287016123e7565b925050604061248586828701612332565b9150509250925092565b600080fd5b600080fd5b7f4e487b7100000000000000000000000000000000000000000000000000000000600052604160045260246000fd5b6124d1826122af565b810181811067ffffffffffffffff821117156124f0576124ef612499565b5b80604052505050565b6000612503612166565b905061250f82826124c8565b919050565b600067ffffffffffffffff82111561252f5761252e612499565b5b612538826122af565b9050602081019050919050565b82818337600083830152505050565b600061256761256284612514565b6124f9565b90508281526020810184848401111561258357612582612494565b5b61258e848285612545565b509392505050565b600082601f8301126125ab576125aa61248f565b5b81356125bb848260208601612554565b91505092915050565b6000602082840312156125da576125d9612170565b5b600082013567ffffffffffffffff8111156125f8576125f7612175565b5b61260484828501612596565b91505092915050565b60006020828403121561262357612622612170565b5b6000612631848285016123e7565b91505092915050565b612643816121ff565b811461264e57600080fd5b50565b6000813590506126608161263a565b92915050565b6000806040838503121561267d5761267c612170565b5b600061268b858286016123e7565b925050602061269c85828601612651565b9150509250929050565b600067ffffffffffffffff8211156126c1576126c0612499565b5b6126ca826122af565b9050602081019050919050565b60006126ea6126e5846126a6565b6124f9565b90508281526020810184848401111561270657612705612494565b5b612711848285612545565b509392505050565b600082601f83011261272e5761272d61248f565b5b813561273e8482602086016126d7565b91505092915050565b6000806000806080858703121561276157612760612170565b5b600061276f878288016123e7565b9450506020612780878288016123e7565b935050604061279187828801612332565b925050606085013567ffffffffffffffff8111156127b2576127b1612175565b5b6127be87828801612719565b91505092959194509250565b600080604083850312156127e1576127e0612170565b5b60006127ef858286016123e7565b9250506020612800858286016123e7565b9150509250929050565b6000602082840312156128205761281f612170565b5b600061282e84828501612651565b91505092915050565b7f4e487b7100000000000000000000000000000000000000000000000000000000600052602260045260246000fd5b6000600282049050600182168061287e57607f821691505b60208210810361289157612890612837565b5b50919050565b600081905092915050565b50565b60006128b2600083612897565b91506128bd826128a2565b600082019050919050565b60006128d3826128a5565b9150819050919050565b60008190508160005260206000209050919050565b60006020601f8301049050919050565b600082821b905092915050565b60006008830261293f7fffffffffffffffffffffffffffffffffffffffffffffffffffffffffffffffff82612902565b6129498683612902565b95508019841693508086168417925050509392505050565b6000819050919050565b600061298661298161297c84612235565b612961565b612235565b9050919050565b6000819050919050565b6129a08361296b565b6129b46129ac8261298d565b84845461290f565b825550505050565b600090565b6129c96129bc565b6129d4818484612997565b505050565b5b818110156129f8576129ed6000826129c1565b6001810190506129da565b5050565b601f821115612a3d57612a0e816128dd565b612a17846128f2565b81016020851015612a26578190505b612a3a612a32856128f2565b8301826129d9565b50505b505050565b600082821c905092915050565b6000612a6060001984600802612a42565b1980831691505092915050565b6000612a798383612a4f565b9150826002028217905092915050565b612a9282612269565b67ffffffffffffffff811115612aab57612aaa612499565b5b612ab58254612866565b612ac08282856129fc565b600060209050601f831160018114612af35760008415612ae1578287015190505b612aeb8582612a6d565b865550612b53565b601f198416612b01866128dd565b60005b82811015612b2957848901518255600182019150602085019450602081019050612b04565b86831015612b465784890151612b42601f891682612a4f565b8355505b6001600288020188555050505b505050505050565b7f526571756573746564206d696e7420636f756e7420657863656564732072657360008201527f65727665206c696d697400000000000000000000000000000000000000000000602082015250565b6000612bb7602a83612274565b9150612bc282612b5b565b604082019050919050565b60006020820190508181036000830152612be681612baa565b9050919050565b7f4e487b7100000000000000000000000000000000000000000000000000000000600052601160045260246000fd5b6000612c2782612235565b9150612c3283612235565b9250828203905081811115612c4a57612c49612bed565b5b92915050565b7f4d696e74206973206e6f74206163746976650000000000000000000000000000600082015250565b6000612c86601283612274565b9150612c9182612c50565b602082019050919050565b60006020820190508181036000830152612cb581612c79565b9050919050565b6000612cc782612235565b9150612cd283612235565b9250828201905080821115612cea57612ce9612bed565b5b92915050565b7f526571756573746564206d696e7420636f756e7420657863656564732074686560008201527f20737570706c7900000000000000000000000000000000000000000000000000602082015250565b6000612d4c602783612274565b9150612d5782612cf0565b604082019050919050565b60006020820190508181036000830152612d7b81612d3f565b9050919050565b7f526571756573746564206d696e7420636f756e7420776f756c6420657863656560008201527f64206d696e74206c696d697420666f72206163636f756e740000000000000000602082015250565b6000612dde603883612274565b9150612de982612d82565b604082019050919050565b60006020820190508181036000830152612e0d81612dd1565b9050919050565b6000612e1f82612235565b9150612e2a83612235565b9250828202612e3881612235565b91508282048414831517612e4f57612e4e612bed565b5b5092915050565b7f4e6f7420656e6f7567682045544820666f72206d696e7420636f756e74000000600082015250565b6000612e8c601d83612274565b9150612e9782612e56565b602082019050919050565b60006020820190508181036000830152612ebb81612e7f565b9050919050565b7f526571756573746564206d696e7420636f756e7420657863656564732066726560008201527f65206d696e7420737570706c7900000000000000000000000000000000000000602082015250565b6000612f1e602d83612274565b9150612f2982612ec2565b604082019050919050565b60006020820190508181036000830152612f4d81612f11565b9050919050565b7f4552433732314d657461646174613a2055524920717565727920666f72206e6f60008201527f6e6578697374656e7420746f6b656e0000000000000000000000000000000000602082015250565b6000612fb0602f83612274565b9150612fbb82612f54565b604082019050919050565b60006020820190508181036000830152612fdf81612fa3565b9050919050565b600081905092915050565b6000612ffc82612269565b6130068185612fe6565b9350613016818560208601612285565b80840191505092915050565b6000815461302f81612866565b6130398186612fe6565b9450600182166000811461305457600181146130695761309c565b60ff198316865281151582028601935061309c565b613072856128dd565b60005b8381101561309457815481890152600182019150602081019050613075565b838801955050505b50505092915050565b60006130b18286612ff1565b91506130bd8285612ff1565b91506130c98284613022565b9150819050949350505050565b7f4f776e61626c653a206e6577206f776e657220697320746865207a65726f206160008201527f6464726573730000000000000000000000000000000000000000000000000000602082015250565b6000613132602683612274565b915061313d826130d6565b604082019050919050565b6000602082019050818103600083015261316181613125565b9050919050565b7f4f776e61626c653a2063616c6c6572206973206e6f7420746865206f776e6572600082015250565b600061319e602083612274565b91506131a982613168565b602082019050919050565b600060208201905081810360008301526131cd81613191565b9050919050565b7f5265656e7472616e637947756172643a207265656e7472616e742063616c6c00600082015250565b600061320a601f83612274565b9150613215826131d4565b602082019050919050565b60006020820190508181036000830152613239816131fd565b9050919050565b600081519050919050565b600082825260208201905092915050565b600061326782613240565b613271818561324b565b9350613281818560208601612285565b61328a816122af565b840191505092915050565b60006080820190506132aa60008301876123a6565b6132b760208301866123a6565b6132c4604083018561223f565b81810360608301526132d6818461325c565b905095945050505050565b6000815190506132f0816121a6565b92915050565b60006020828403121561330c5761330b612170565b5b600061331a848285016132e1565b91505092915050565b7f4e487b7100000000000000000000000000000000000000000000000000000000600052601260045260246000fdfea264697066735822122025fba584c2b4078f242b1696a3096ae3464b9fc438b1578e0679d71c83cd5a5f64736f6c63430008110033",
    "linkReferences": {},
    "deployedLinkReferences": {}
}